{
  "_format": "hh-sol-artifact-1",
  "contractName": "Todo",
  "sourceName": "contracts/Todo.sol",
  "abi": [
    {
      "anonymous": false,
      "inputs": [
        {
          "components": [
            {
              "internalType": "string",
              "name": "id",
              "type": "string"
            },
            {
              "internalType": "bool",
              "name": "done",
              "type": "bool"
            },
            {
              "internalType": "string",
              "name": "value",
              "type": "string"
            }
          ],
          "indexed": false,
          "internalType": "struct Todo.todoStruct[]",
          "name": "currentTodos",
          "type": "tuple[]"
        }
      ],
      "name": "TodosUpdate",
      "type": "event"
    },
    {
      "inputs": [
        {
          "internalType": "string",
          "name": "_id",
          "type": "string"
        },
        {
          "internalType": "string",
          "name": "_title",
          "type": "string"
        }
      ],
      "name": "addTodo",
      "outputs": [],
      "stateMutability": "nonpayable",
      "type": "function"
    },
    {
      "inputs": [
        {
          "internalType": "string",
          "name": "_id",
          "type": "string"
        }
      ],
      "name": "deleteTodo",
      "outputs": [],
      "stateMutability": "nonpayable",
      "type": "function"
    },
    {
      "inputs": [],
      "name": "getTodos",
      "outputs": [
        {
          "components": [
            {
              "internalType": "string",
              "name": "id",
              "type": "string"
            },
            {
              "internalType": "bool",
              "name": "done",
              "type": "bool"
            },
            {
              "internalType": "string",
              "name": "value",
              "type": "string"
            }
          ],
          "internalType": "struct Todo.todoStruct[]",
          "name": "",
          "type": "tuple[]"
        }
      ],
      "stateMutability": "view",
      "type": "function"
    },
    {
      "inputs": [
        {
          "internalType": "address",
          "name": "",
          "type": "address"
        },
        {
          "internalType": "uint256",
          "name": "",
          "type": "uint256"
        }
      ],
      "name": "todos",
      "outputs": [
        {
          "internalType": "string",
          "name": "id",
          "type": "string"
        },
        {
          "internalType": "bool",
          "name": "done",
          "type": "bool"
        },
        {
          "internalType": "string",
          "name": "value",
          "type": "string"
        }
      ],
      "stateMutability": "view",
      "type": "function"
    },
    {
      "inputs": [
        {
          "internalType": "string",
          "name": "_id",
          "type": "string"
        }
      ],
      "name": "updateTodo",
      "outputs": [],
      "stateMutability": "nonpayable",
      "type": "function"
    }
  ],
  "bytecode": "0x608060405234801561001057600080fd5b5061195c806100206000396000f3fe608060405234801561001057600080fd5b50600436106100575760003560e01c80631b7fb2601461005c578063428c1889146100785780638ff27a05146100aa578063c33926cb146100c6578063d241acea146100e4575b600080fd5b6100766004803603810190610071919061109c565b610100565b005b610092600480360381019061008d91906111a8565b6103d2565b6040516100a19392919061128b565b60405180910390f35b6100c460048036038101906100bf91906112d0565b610536565b005b6100ce610719565b6040516100db919061148b565b60405180910390f35b6100fe60048036038101906100f991906112d0565b6108f3565b005b6001600061010e9190610c9e565b600160405180606001604052808481526020016000151581526020018381525090806001815401808255809150506001900390600052602060002090600302016000909190919091506000820151816000019080519060200190610173929190610cc2565b5060208201518160010160006101000a81548160ff02191690831515021790555060408201518160020190805190602001906101b0929190610cc2565b50505060005b6000803373ffffffffffffffffffffffffffffffffffffffff1673ffffffffffffffffffffffffffffffffffffffff1681526020019081526020016000208054905081101561030a5760016000803373ffffffffffffffffffffffffffffffffffffffff1673ffffffffffffffffffffffffffffffffffffffff1681526020019081526020016000208281548110610251576102506114ad565b5b90600052602060002090600302019080600181540180825580915050600190039060005260206000209060030201600090919091909150600082018160000190805461029c9061150b565b6102a7929190610d48565b506001820160009054906101000a900460ff168160010160006101000a81548160ff02191690831515021790555060028201816002019080546102e99061150b565b6102f4929190610d48565b50505080806103029061156c565b9150506101b6565b5060016000803373ffffffffffffffffffffffffffffffffffffffff1673ffffffffffffffffffffffffffffffffffffffff168152602001908152602001600020908054610359929190610dd5565b507f08691832c59b4ed78495e95dc7c8ec699e072f86aaaa867ba9c42d23103849826000803373ffffffffffffffffffffffffffffffffffffffff1673ffffffffffffffffffffffffffffffffffffffff1681526020019081526020016000206040516103c69190611795565b60405180910390a15050565b600060205281600052604060002081815481106103ee57600080fd5b9060005260206000209060030201600091509150508060000180546104129061150b565b80601f016020809104026020016040519081016040528092919081815260200182805461043e9061150b565b801561048b5780601f106104605761010080835404028352916020019161048b565b820191906000526020600020905b81548152906001019060200180831161046e57829003601f168201915b5050505050908060010160009054906101000a900460ff16908060020180546104b39061150b565b80601f01602080910402602001604051908101604052809291908181526020018280546104df9061150b565b801561052c5780601f106105015761010080835404028352916020019161052c565b820191906000526020600020905b81548152906001019060200180831161050f57829003601f168201915b5050505050905083565b600080600090505b6000803373ffffffffffffffffffffffffffffffffffffffff1673ffffffffffffffffffffffffffffffffffffffff168152602001908152602001600020805490508110156106265782805190602001206000803373ffffffffffffffffffffffffffffffffffffffff1673ffffffffffffffffffffffffffffffffffffffff16815260200190815260200160002082815481106105df576105de6114ad565b5b90600052602060002090600302016000016040516105fd9190611856565b6040518091039020141561061357809150610626565b808061061e9061156c565b91505061053e565b5060016000803373ffffffffffffffffffffffffffffffffffffffff1673ffffffffffffffffffffffffffffffffffffffff1681526020019081526020016000208281548110610679576106786114ad565b5b906000526020600020906003020160010160006101000a81548160ff0219169083151502179055507f08691832c59b4ed78495e95dc7c8ec699e072f86aaaa867ba9c42d23103849826000803373ffffffffffffffffffffffffffffffffffffffff1673ffffffffffffffffffffffffffffffffffffffff16815260200190815260200160002060405161070d9190611795565b60405180910390a15050565b60606000803373ffffffffffffffffffffffffffffffffffffffff1673ffffffffffffffffffffffffffffffffffffffff168152602001908152602001600020805480602002602001604051908101604052809291908181526020016000905b828210156108ea57838290600052602060002090600302016040518060600160405290816000820180546107ac9061150b565b80601f01602080910402602001604051908101604052809291908181526020018280546107d89061150b565b80156108255780601f106107fa57610100808354040283529160200191610825565b820191906000526020600020905b81548152906001019060200180831161080857829003601f168201915b505050505081526020016001820160009054906101000a900460ff161515151581526020016002820180546108599061150b565b80601f01602080910402602001604051908101604052809291908181526020018280546108859061150b565b80156108d25780601f106108a7576101008083540402835291602001916108d2565b820191906000526020600020905b8154815290600101906020018083116108b557829003601f168201915b50505050508152505081526020019060010190610779565b50505050905090565b600080600090505b6000803373ffffffffffffffffffffffffffffffffffffffff1673ffffffffffffffffffffffffffffffffffffffff168152602001908152602001600020805490508110156109e35782805190602001206000803373ffffffffffffffffffffffffffffffffffffffff1673ffffffffffffffffffffffffffffffffffffffff168152602001908152602001600020828154811061099c5761099b6114ad565b5b90600052602060002090600302016000016040516109ba9190611856565b604051809103902014156109d0578091506109e3565b80806109db9061156c565b9150506108fb565b5060008190505b60016000803373ffffffffffffffffffffffffffffffffffffffff1673ffffffffffffffffffffffffffffffffffffffff16815260200190815260200160002080549050610a38919061186d565b811015610b8a576000803373ffffffffffffffffffffffffffffffffffffffff1673ffffffffffffffffffffffffffffffffffffffff168152602001908152602001600020600182610a8a91906118a1565b81548110610a9b57610a9a6114ad565b5b90600052602060002090600302016000803373ffffffffffffffffffffffffffffffffffffffff1673ffffffffffffffffffffffffffffffffffffffff1681526020019081526020016000208281548110610af957610af86114ad565b5b90600052602060002090600302016000820181600001908054610b1b9061150b565b610b26929190610d48565b506001820160009054906101000a900460ff168160010160006101000a81548160ff0219169083151502179055506002820181600201908054610b689061150b565b610b73929190610d48565b509050508080610b829061156c565b9150506109ea565b506000803373ffffffffffffffffffffffffffffffffffffffff1673ffffffffffffffffffffffffffffffffffffffff168152602001908152602001600020805480610bd957610bd86118f7565b5b600190038181906000526020600020906003020160008082016000610bfe9190610e9a565b6001820160006101000a81549060ff0219169055600282016000610c229190610e9a565b505090557f08691832c59b4ed78495e95dc7c8ec699e072f86aaaa867ba9c42d23103849826000803373ffffffffffffffffffffffffffffffffffffffff1673ffffffffffffffffffffffffffffffffffffffff168152602001908152602001600020604051610c929190611795565b60405180910390a15050565b5080546000825560030290600052602060002090810190610cbf9190610eda565b50565b828054610cce9061150b565b90600052602060002090601f016020900481019282610cf05760008555610d37565b82601f10610d0957805160ff1916838001178555610d37565b82800160010185558215610d37579182015b82811115610d36578251825591602001919060010190610d1b565b5b509050610d449190610f25565b5090565b828054610d549061150b565b90600052602060002090601f016020900481019282610d765760008555610dc4565b82601f10610d875780548555610dc4565b82800160010185558215610dc457600052602060002091601f016020900482015b82811115610dc3578254825591600101919060010190610da8565b5b509050610dd19190610f25565b5090565b828054828255906000526020600020906003028101928215610e895760005260206000209160030282015b82811115610e885782826000820181600001908054610e1e9061150b565b610e29929190610d48565b506001820160009054906101000a900460ff168160010160006101000a81548160ff0219169083151502179055506002820181600201908054610e6b9061150b565b610e76929190610d48565b50505091600301919060030190610e00565b5b509050610e969190610eda565b5090565b508054610ea69061150b565b6000825580601f10610eb85750610ed7565b601f016020900490600052602060002090810190610ed69190610f25565b5b50565b5b80821115610f215760008082016000610ef49190610e9a565b6001820160006101000a81549060ff0219169055600282016000610f189190610e9a565b50600301610edb565b5090565b5b80821115610f3e576000816000905550600101610f26565b5090565b6000604051905090565b600080fd5b600080fd5b600080fd5b600080fd5b6000601f19601f8301169050919050565b7f4e487b7100000000000000000000000000000000000000000000000000000000600052604160045260246000fd5b610fa982610f60565b810181811067ffffffffffffffff82111715610fc857610fc7610f71565b5b80604052505050565b6000610fdb610f42565b9050610fe78282610fa0565b919050565b600067ffffffffffffffff82111561100757611006610f71565b5b61101082610f60565b9050602081019050919050565b82818337600083830152505050565b600061103f61103a84610fec565b610fd1565b90508281526020810184848401111561105b5761105a610f5b565b5b61106684828561101d565b509392505050565b600082601f83011261108357611082610f56565b5b813561109384826020860161102c565b91505092915050565b600080604083850312156110b3576110b2610f4c565b5b600083013567ffffffffffffffff8111156110d1576110d0610f51565b5b6110dd8582860161106e565b925050602083013567ffffffffffffffff8111156110fe576110fd610f51565b5b61110a8582860161106e565b9150509250929050565b600073ffffffffffffffffffffffffffffffffffffffff82169050919050565b600061113f82611114565b9050919050565b61114f81611134565b811461115a57600080fd5b50565b60008135905061116c81611146565b92915050565b6000819050919050565b61118581611172565b811461119057600080fd5b50565b6000813590506111a28161117c565b92915050565b600080604083850312156111bf576111be610f4c565b5b60006111cd8582860161115d565b92505060206111de85828601611193565b9150509250929050565b600081519050919050565b600082825260208201905092915050565b60005b83811015611222578082015181840152602081019050611207565b83811115611231576000848401525b50505050565b6000611242826111e8565b61124c81856111f3565b935061125c818560208601611204565b61126581610f60565b840191505092915050565b60008115159050919050565b61128581611270565b82525050565b600060608201905081810360008301526112a58186611237565b90506112b4602083018561127c565b81810360408301526112c68184611237565b9050949350505050565b6000602082840312156112e6576112e5610f4c565b5b600082013567ffffffffffffffff81111561130457611303610f51565b5b6113108482850161106e565b91505092915050565b600081519050919050565b600082825260208201905092915050565b6000819050602082019050919050565b600082825260208201905092915050565b6000611361826111e8565b61136b8185611345565b935061137b818560208601611204565b61138481610f60565b840191505092915050565b61139881611270565b82525050565b600060608301600083015184820360008601526113bb8282611356565b91505060208301516113d0602086018261138f565b50604083015184820360408601526113e88282611356565b9150508091505092915050565b6000611401838361139e565b905092915050565b6000602082019050919050565b600061142182611319565b61142b8185611324565b93508360208202850161143d85611335565b8060005b85811015611479578484038952815161145a85826113f5565b945061146583611409565b925060208a01995050600181019050611441565b50829750879550505050505092915050565b600060208201905081810360008301526114a58184611416565b905092915050565b7f4e487b7100000000000000000000000000000000000000000000000000000000600052603260045260246000fd5b7f4e487b7100000000000000000000000000000000000000000000000000000000600052602260045260246000fd5b6000600282049050600182168061152357607f821691505b60208210811415611537576115366114dc565b5b50919050565b7f4e487b7100000000000000000000000000000000000000000000000000000000600052601160045260246000fd5b600061157782611172565b91507fffffffffffffffffffffffffffffffffffffffffffffffffffffffffffffffff8214156115aa576115a961153d565b5b600182019050919050565b600081549050919050565b60008190508160005260206000209050919050565b60008190508160005260206000209050919050565b600081546115f78161150b565b6116018186611345565b9450600182166000811461161c576001811461162e57611661565b60ff1983168652602086019350611661565b611637856115d5565b60005b838110156116595781548189015260018201915060208101905061163a565b808801955050505b50505092915050565b60008160001c9050919050565b600060ff82169050919050565b60006116976116928361166a565b611677565b9050919050565b600060608301600080840185830360008701526116bb83826115ea565b925050600184015490506116ce81611684565b6116db602087018261138f565b506002840185830360408701526116f283826115ea565b925050819250505092915050565b600061170c838361169e565b905092915050565b6000600382019050919050565b600061172c826115b5565b6117368185611324565b935083602082028501611748856115c0565b8060005b85811015611783578484038952816117648582611700565b945061176f83611714565b925060208a0199505060018101905061174c565b50829750879550505050505092915050565b600060208201905081810360008301526117af8184611721565b905092915050565b600081905092915050565b60008190508160005260206000209050919050565b600081546117e48161150b565b6117ee81866117b7565b94506001821660008114611809576001811461181a5761184d565b60ff1983168652818601935061184d565b611823856117c2565b60005b8381101561184557815481890152600182019150602081019050611826565b838801955050505b50505092915050565b600061186282846117d7565b915081905092915050565b600061187882611172565b915061188383611172565b9250828210156118965761189561153d565b5b828203905092915050565b60006118ac82611172565b91506118b783611172565b9250827fffffffffffffffffffffffffffffffffffffffffffffffffffffffffffffffff038211156118ec576118eb61153d565b5b828201905092915050565b7f4e487b7100000000000000000000000000000000000000000000000000000000600052603160045260246000fdfea2646970667358221220b2f7ccef9ec5db2b95134144794c6bdbdf3904373b45d740180496b981218c3864736f6c63430008090033",
  "linkReferences": {},
  "deployedLinkReferences": {}
}