{
  "_format": "hh-sol-artifact-1",
  "contractName": "Todo",
  "sourceName": "contracts/Todo.sol",
  "abi": [
    {
      "inputs": [
        {
          "internalType": "string",
          "name": "_id",
          "type": "string"
        },
        {
          "internalType": "string",
          "name": "_title",
          "type": "string"
        }
      ],
      "name": "addTodoStart",
      "outputs": [],
      "stateMutability": "nonpayable",
      "type": "function"
    },
    {
      "inputs": [
        {
          "internalType": "string",
          "name": "_id",
          "type": "string"
        }
      ],
      "name": "deleteTodo",
      "outputs": [],
      "stateMutability": "nonpayable",
      "type": "function"
    },
    {
      "inputs": [],
      "name": "getTodos",
      "outputs": [
        {
          "components": [
            {
              "internalType": "string",
              "name": "id",
              "type": "string"
            },
            {
              "internalType": "bool",
              "name": "done",
              "type": "bool"
            },
            {
              "internalType": "string",
              "name": "value",
              "type": "string"
            }
          ],
          "internalType": "struct Todo.todoStruct[]",
          "name": "",
          "type": "tuple[]"
        }
      ],
      "stateMutability": "view",
      "type": "function"
    },
    {
      "inputs": [
        {
          "internalType": "address",
          "name": "",
          "type": "address"
        },
        {
          "internalType": "uint256",
          "name": "",
          "type": "uint256"
        }
      ],
      "name": "todos",
      "outputs": [
        {
          "internalType": "string",
          "name": "id",
          "type": "string"
        },
        {
          "internalType": "bool",
          "name": "done",
          "type": "bool"
        },
        {
          "internalType": "string",
          "name": "value",
          "type": "string"
        }
      ],
      "stateMutability": "view",
      "type": "function"
    },
    {
      "inputs": [
        {
          "internalType": "string",
          "name": "_id",
          "type": "string"
        }
      ],
      "name": "updateTodo",
      "outputs": [],
      "stateMutability": "nonpayable",
      "type": "function"
    }
  ],
  "bytecode": "0x608060405234801561001057600080fd5b506115fe806100206000396000f3fe608060405234801561001057600080fd5b50600436106100575760003560e01c8063428c18891461005c5780638ff27a051461008e578063b573d82b146100aa578063c33926cb146100c6578063d241acea146100e4575b600080fd5b61007660048036038101906100719190610e8e565b610100565b60405161008593929190610f82565b60405180910390f35b6100a860048036038101906100a391906110fc565b610264565b005b6100c460048036038101906100bf9190611145565b6103d3565b005b6100ce610631565b6040516100db919061132f565b60405180910390f35b6100fe60048036038101906100f991906110fc565b61080b565b005b6000602052816000526040600020818154811061011c57600080fd5b90600052602060002090600302016000915091505080600001805461014090611380565b80601f016020809104026020016040519081016040528092919081815260200182805461016c90611380565b80156101b95780601f1061018e576101008083540402835291602001916101b9565b820191906000526020600020905b81548152906001019060200180831161019c57829003601f168201915b5050505050908060010160009054906101000a900460ff16908060020180546101e190611380565b80601f016020809104026020016040519081016040528092919081815260200182805461020d90611380565b801561025a5780601f1061022f5761010080835404028352916020019161025a565b820191906000526020600020905b81548152906001019060200180831161023d57829003601f168201915b5050505050905083565b600080600090505b6000803373ffffffffffffffffffffffffffffffffffffffff1673ffffffffffffffffffffffffffffffffffffffff168152602001908152602001600020805490508110156103545782805190602001206000803373ffffffffffffffffffffffffffffffffffffffff1673ffffffffffffffffffffffffffffffffffffffff168152602001908152602001600020828154811061030d5761030c6113b2565b5b906000526020600020906003020160000160405161032b9190611480565b6040518091039020141561034157809150610354565b808061034c906114c6565b91505061026c565b5060016000803373ffffffffffffffffffffffffffffffffffffffff1673ffffffffffffffffffffffffffffffffffffffff16815260200190815260200160002082815481106103a7576103a66113b2565b5b906000526020600020906003020160010160006101000a81548160ff0219169083151502179055505050565b600160006103e19190610b42565b600160405180606001604052808481526020016000151581526020018381525090806001815401808255809150506001900390600052602060002090600302016000909190919091506000820151816000019080519060200190610446929190610b66565b5060208201518160010160006101000a81548160ff0219169083151502179055506040820151816002019080519060200190610483929190610b66565b50505060005b6000803373ffffffffffffffffffffffffffffffffffffffff1673ffffffffffffffffffffffffffffffffffffffff168152602001908152602001600020805490508110156105dd5760016000803373ffffffffffffffffffffffffffffffffffffffff1673ffffffffffffffffffffffffffffffffffffffff1681526020019081526020016000208281548110610524576105236113b2565b5b90600052602060002090600302019080600181540180825580915050600190039060005260206000209060030201600090919091909150600082018160000190805461056f90611380565b61057a929190610bec565b506001820160009054906101000a900460ff168160010160006101000a81548160ff02191690831515021790555060028201816002019080546105bc90611380565b6105c7929190610bec565b50505080806105d5906114c6565b915050610489565b5060016000803373ffffffffffffffffffffffffffffffffffffffff1673ffffffffffffffffffffffffffffffffffffffff16815260200190815260200160002090805461062c929190610c79565b505050565b60606000803373ffffffffffffffffffffffffffffffffffffffff1673ffffffffffffffffffffffffffffffffffffffff168152602001908152602001600020805480602002602001604051908101604052809291908181526020016000905b8282101561080257838290600052602060002090600302016040518060600160405290816000820180546106c490611380565b80601f01602080910402602001604051908101604052809291908181526020018280546106f090611380565b801561073d5780601f106107125761010080835404028352916020019161073d565b820191906000526020600020905b81548152906001019060200180831161072057829003601f168201915b505050505081526020016001820160009054906101000a900460ff1615151515815260200160028201805461077190611380565b80601f016020809104026020016040519081016040528092919081815260200182805461079d90611380565b80156107ea5780601f106107bf576101008083540402835291602001916107ea565b820191906000526020600020905b8154815290600101906020018083116107cd57829003601f168201915b50505050508152505081526020019060010190610691565b50505050905090565b600080600090505b6000803373ffffffffffffffffffffffffffffffffffffffff1673ffffffffffffffffffffffffffffffffffffffff168152602001908152602001600020805490508110156108fb5782805190602001206000803373ffffffffffffffffffffffffffffffffffffffff1673ffffffffffffffffffffffffffffffffffffffff16815260200190815260200160002082815481106108b4576108b36113b2565b5b90600052602060002090600302016000016040516108d29190611480565b604051809103902014156108e8578091506108fb565b80806108f3906114c6565b915050610813565b5060008190505b60016000803373ffffffffffffffffffffffffffffffffffffffff1673ffffffffffffffffffffffffffffffffffffffff16815260200190815260200160002080549050610950919061150f565b811015610aa2576000803373ffffffffffffffffffffffffffffffffffffffff1673ffffffffffffffffffffffffffffffffffffffff1681526020019081526020016000206001826109a29190611543565b815481106109b3576109b26113b2565b5b90600052602060002090600302016000803373ffffffffffffffffffffffffffffffffffffffff1673ffffffffffffffffffffffffffffffffffffffff1681526020019081526020016000208281548110610a1157610a106113b2565b5b90600052602060002090600302016000820181600001908054610a3390611380565b610a3e929190610bec565b506001820160009054906101000a900460ff168160010160006101000a81548160ff0219169083151502179055506002820181600201908054610a8090611380565b610a8b929190610bec565b509050508080610a9a906114c6565b915050610902565b506000803373ffffffffffffffffffffffffffffffffffffffff1673ffffffffffffffffffffffffffffffffffffffff168152602001908152602001600020805480610af157610af0611599565b5b600190038181906000526020600020906003020160008082016000610b169190610d3e565b6001820160006101000a81549060ff0219169055600282016000610b3a9190610d3e565b505090555050565b5080546000825560030290600052602060002090810190610b639190610d7e565b50565b828054610b7290611380565b90600052602060002090601f016020900481019282610b945760008555610bdb565b82601f10610bad57805160ff1916838001178555610bdb565b82800160010185558215610bdb579182015b82811115610bda578251825591602001919060010190610bbf565b5b509050610be89190610dc9565b5090565b828054610bf890611380565b90600052602060002090601f016020900481019282610c1a5760008555610c68565b82601f10610c2b5780548555610c68565b82800160010185558215610c6857600052602060002091601f016020900482015b82811115610c67578254825591600101919060010190610c4c565b5b509050610c759190610dc9565b5090565b828054828255906000526020600020906003028101928215610d2d5760005260206000209160030282015b82811115610d2c5782826000820181600001908054610cc290611380565b610ccd929190610bec565b506001820160009054906101000a900460ff168160010160006101000a81548160ff0219169083151502179055506002820181600201908054610d0f90611380565b610d1a929190610bec565b50505091600301919060030190610ca4565b5b509050610d3a9190610d7e565b5090565b508054610d4a90611380565b6000825580601f10610d5c5750610d7b565b601f016020900490600052602060002090810190610d7a9190610dc9565b5b50565b5b80821115610dc55760008082016000610d989190610d3e565b6001820160006101000a81549060ff0219169055600282016000610dbc9190610d3e565b50600301610d7f565b5090565b5b80821115610de2576000816000905550600101610dca565b5090565b6000604051905090565b600080fd5b600080fd5b600073ffffffffffffffffffffffffffffffffffffffff82169050919050565b6000610e2582610dfa565b9050919050565b610e3581610e1a565b8114610e4057600080fd5b50565b600081359050610e5281610e2c565b92915050565b6000819050919050565b610e6b81610e58565b8114610e7657600080fd5b50565b600081359050610e8881610e62565b92915050565b60008060408385031215610ea557610ea4610df0565b5b6000610eb385828601610e43565b9250506020610ec485828601610e79565b9150509250929050565b600081519050919050565b600082825260208201905092915050565b60005b83811015610f08578082015181840152602081019050610eed565b83811115610f17576000848401525b50505050565b6000601f19601f8301169050919050565b6000610f3982610ece565b610f438185610ed9565b9350610f53818560208601610eea565b610f5c81610f1d565b840191505092915050565b60008115159050919050565b610f7c81610f67565b82525050565b60006060820190508181036000830152610f9c8186610f2e565b9050610fab6020830185610f73565b8181036040830152610fbd8184610f2e565b9050949350505050565b600080fd5b600080fd5b7f4e487b7100000000000000000000000000000000000000000000000000000000600052604160045260246000fd5b61100982610f1d565b810181811067ffffffffffffffff8211171561102857611027610fd1565b5b80604052505050565b600061103b610de6565b90506110478282611000565b919050565b600067ffffffffffffffff82111561106757611066610fd1565b5b61107082610f1d565b9050602081019050919050565b82818337600083830152505050565b600061109f61109a8461104c565b611031565b9050828152602081018484840111156110bb576110ba610fcc565b5b6110c684828561107d565b509392505050565b600082601f8301126110e3576110e2610fc7565b5b81356110f384826020860161108c565b91505092915050565b60006020828403121561111257611111610df0565b5b600082013567ffffffffffffffff8111156111305761112f610df5565b5b61113c848285016110ce565b91505092915050565b6000806040838503121561115c5761115b610df0565b5b600083013567ffffffffffffffff81111561117a57611179610df5565b5b611186858286016110ce565b925050602083013567ffffffffffffffff8111156111a7576111a6610df5565b5b6111b3858286016110ce565b9150509250929050565b600081519050919050565b600082825260208201905092915050565b6000819050602082019050919050565b600082825260208201905092915050565b600061120582610ece565b61120f81856111e9565b935061121f818560208601610eea565b61122881610f1d565b840191505092915050565b61123c81610f67565b82525050565b6000606083016000830151848203600086015261125f82826111fa565b91505060208301516112746020860182611233565b506040830151848203604086015261128c82826111fa565b9150508091505092915050565b60006112a58383611242565b905092915050565b6000602082019050919050565b60006112c5826111bd565b6112cf81856111c8565b9350836020820285016112e1856111d9565b8060005b8581101561131d57848403895281516112fe8582611299565b9450611309836112ad565b925060208a019950506001810190506112e5565b50829750879550505050505092915050565b6000602082019050818103600083015261134981846112ba565b905092915050565b7f4e487b7100000000000000000000000000000000000000000000000000000000600052602260045260246000fd5b6000600282049050600182168061139857607f821691505b602082108114156113ac576113ab611351565b5b50919050565b7f4e487b7100000000000000000000000000000000000000000000000000000000600052603260045260246000fd5b600081905092915050565b60008190508160005260206000209050919050565b6000815461140e81611380565b61141881866113e1565b94506001821660008114611433576001811461144457611477565b60ff19831686528186019350611477565b61144d856113ec565b60005b8381101561146f57815481890152600182019150602081019050611450565b838801955050505b50505092915050565b600061148c8284611401565b915081905092915050565b7f4e487b7100000000000000000000000000000000000000000000000000000000600052601160045260246000fd5b60006114d182610e58565b91507fffffffffffffffffffffffffffffffffffffffffffffffffffffffffffffffff82141561150457611503611497565b5b600182019050919050565b600061151a82610e58565b915061152583610e58565b92508282101561153857611537611497565b5b828203905092915050565b600061154e82610e58565b915061155983610e58565b9250827fffffffffffffffffffffffffffffffffffffffffffffffffffffffffffffffff0382111561158e5761158d611497565b5b828201905092915050565b7f4e487b7100000000000000000000000000000000000000000000000000000000600052603160045260246000fdfea26469706673582212208a76b0df7452b54820044a08f966a50785b1f20ca681300ab4786a504c2463a764736f6c63430008090033",
  "linkReferences": {},
  "deployedLinkReferences": {}
}