{
  "_format": "hh-sol-artifact-1",
  "contractName": "Todo",
  "sourceName": "contracts/Todo.sol",
  "abi": [
    {
      "anonymous": false,
      "inputs": [
        {
          "components": [
            {
              "internalType": "string",
              "name": "id",
              "type": "string"
            },
            {
              "internalType": "bool",
              "name": "done",
              "type": "bool"
            },
            {
              "internalType": "string",
              "name": "value",
              "type": "string"
            }
          ],
          "indexed": false,
          "internalType": "struct Todo.todoStruct[]",
          "name": "currentTodos",
          "type": "tuple[]"
        },
        {
          "indexed": false,
          "internalType": "address",
          "name": "currentAddress",
          "type": "address"
        }
      ],
      "name": "TodosUpdate",
      "type": "event"
    },
    {
      "inputs": [
        {
          "internalType": "string",
          "name": "_id",
          "type": "string"
        },
        {
          "internalType": "string",
          "name": "_title",
          "type": "string"
        }
      ],
      "name": "addTodo",
      "outputs": [],
      "stateMutability": "nonpayable",
      "type": "function"
    },
    {
      "inputs": [
        {
          "internalType": "string",
          "name": "_id",
          "type": "string"
        }
      ],
      "name": "deleteTodo",
      "outputs": [],
      "stateMutability": "nonpayable",
      "type": "function"
    },
    {
      "inputs": [],
      "name": "getTodos",
      "outputs": [
        {
          "components": [
            {
              "internalType": "string",
              "name": "id",
              "type": "string"
            },
            {
              "internalType": "bool",
              "name": "done",
              "type": "bool"
            },
            {
              "internalType": "string",
              "name": "value",
              "type": "string"
            }
          ],
          "internalType": "struct Todo.todoStruct[]",
          "name": "",
          "type": "tuple[]"
        }
      ],
      "stateMutability": "view",
      "type": "function"
    },
    {
      "inputs": [
        {
          "internalType": "address",
          "name": "",
          "type": "address"
        },
        {
          "internalType": "uint256",
          "name": "",
          "type": "uint256"
        }
      ],
      "name": "todos",
      "outputs": [
        {
          "internalType": "string",
          "name": "id",
          "type": "string"
        },
        {
          "internalType": "bool",
          "name": "done",
          "type": "bool"
        },
        {
          "internalType": "string",
          "name": "value",
          "type": "string"
        }
      ],
      "stateMutability": "view",
      "type": "function"
    },
    {
      "inputs": [
        {
          "internalType": "string",
          "name": "_id",
          "type": "string"
        }
      ],
      "name": "updateTodo",
      "outputs": [],
      "stateMutability": "nonpayable",
      "type": "function"
    }
  ],
  "bytecode": "0x608060405234801561001057600080fd5b5061197f806100206000396000f3fe608060405234801561001057600080fd5b50600436106100575760003560e01c80631b7fb2601461005c578063428c1889146100785780638ff27a05146100aa578063c33926cb146100c6578063d241acea146100e4575b600080fd5b610076600480360381019061007191906110a2565b610100565b005b610092600480360381019061008d91906111ae565b6103d4565b6040516100a193929190611291565b60405180910390f35b6100c460048036038101906100bf91906112d6565b610538565b005b6100ce61071d565b6040516100db9190611491565b60405180910390f35b6100fe60048036038101906100f991906112d6565b6108f7565b005b6001600061010e9190610ca4565b600160405180606001604052808481526020016000151581526020018381525090806001815401808255809150506001900390600052602060002090600302016000909190919091506000820151816000019080519060200190610173929190610cc8565b5060208201518160010160006101000a81548160ff02191690831515021790555060408201518160020190805190602001906101b0929190610cc8565b50505060005b6000803373ffffffffffffffffffffffffffffffffffffffff1673ffffffffffffffffffffffffffffffffffffffff1681526020019081526020016000208054905081101561030a5760016000803373ffffffffffffffffffffffffffffffffffffffff1673ffffffffffffffffffffffffffffffffffffffff1681526020019081526020016000208281548110610251576102506114b3565b5b90600052602060002090600302019080600181540180825580915050600190039060005260206000209060030201600090919091909150600082018160000190805461029c90611511565b6102a7929190610d4e565b506001820160009054906101000a900460ff168160010160006101000a81548160ff02191690831515021790555060028201816002019080546102e990611511565b6102f4929190610d4e565b505050808061030290611572565b9150506101b6565b5060016000803373ffffffffffffffffffffffffffffffffffffffff1673ffffffffffffffffffffffffffffffffffffffff168152602001908152602001600020908054610359929190610ddb565b507f655d76f017524a8cd0e3013b9b5c0e5dee7b121b813207ef73932dea8b6536f56000803373ffffffffffffffffffffffffffffffffffffffff1673ffffffffffffffffffffffffffffffffffffffff168152602001908152602001600020336040516103c89291906117aa565b60405180910390a15050565b600060205281600052604060002081815481106103f057600080fd5b90600052602060002090600302016000915091505080600001805461041490611511565b80601f016020809104026020016040519081016040528092919081815260200182805461044090611511565b801561048d5780601f106104625761010080835404028352916020019161048d565b820191906000526020600020905b81548152906001019060200180831161047057829003601f168201915b5050505050908060010160009054906101000a900460ff16908060020180546104b590611511565b80601f01602080910402602001604051908101604052809291908181526020018280546104e190611511565b801561052e5780601f106105035761010080835404028352916020019161052e565b820191906000526020600020905b81548152906001019060200180831161051157829003601f168201915b5050505050905083565b600080600090505b6000803373ffffffffffffffffffffffffffffffffffffffff1673ffffffffffffffffffffffffffffffffffffffff168152602001908152602001600020805490508110156106285782805190602001206000803373ffffffffffffffffffffffffffffffffffffffff1673ffffffffffffffffffffffffffffffffffffffff16815260200190815260200160002082815481106105e1576105e06114b3565b5b90600052602060002090600302016000016040516105ff9190611879565b6040518091039020141561061557809150610628565b808061062090611572565b915050610540565b5060016000803373ffffffffffffffffffffffffffffffffffffffff1673ffffffffffffffffffffffffffffffffffffffff168152602001908152602001600020828154811061067b5761067a6114b3565b5b906000526020600020906003020160010160006101000a81548160ff0219169083151502179055507f655d76f017524a8cd0e3013b9b5c0e5dee7b121b813207ef73932dea8b6536f56000803373ffffffffffffffffffffffffffffffffffffffff1673ffffffffffffffffffffffffffffffffffffffff168152602001908152602001600020336040516107119291906117aa565b60405180910390a15050565b60606000803373ffffffffffffffffffffffffffffffffffffffff1673ffffffffffffffffffffffffffffffffffffffff168152602001908152602001600020805480602002602001604051908101604052809291908181526020016000905b828210156108ee57838290600052602060002090600302016040518060600160405290816000820180546107b090611511565b80601f01602080910402602001604051908101604052809291908181526020018280546107dc90611511565b80156108295780601f106107fe57610100808354040283529160200191610829565b820191906000526020600020905b81548152906001019060200180831161080c57829003601f168201915b505050505081526020016001820160009054906101000a900460ff1615151515815260200160028201805461085d90611511565b80601f016020809104026020016040519081016040528092919081815260200182805461088990611511565b80156108d65780601f106108ab576101008083540402835291602001916108d6565b820191906000526020600020905b8154815290600101906020018083116108b957829003601f168201915b5050505050815250508152602001906001019061077d565b50505050905090565b600080600090505b6000803373ffffffffffffffffffffffffffffffffffffffff1673ffffffffffffffffffffffffffffffffffffffff168152602001908152602001600020805490508110156109e75782805190602001206000803373ffffffffffffffffffffffffffffffffffffffff1673ffffffffffffffffffffffffffffffffffffffff16815260200190815260200160002082815481106109a05761099f6114b3565b5b90600052602060002090600302016000016040516109be9190611879565b604051809103902014156109d4578091506109e7565b80806109df90611572565b9150506108ff565b5060008190505b60016000803373ffffffffffffffffffffffffffffffffffffffff1673ffffffffffffffffffffffffffffffffffffffff16815260200190815260200160002080549050610a3c9190611890565b811015610b8e576000803373ffffffffffffffffffffffffffffffffffffffff1673ffffffffffffffffffffffffffffffffffffffff168152602001908152602001600020600182610a8e91906118c4565b81548110610a9f57610a9e6114b3565b5b90600052602060002090600302016000803373ffffffffffffffffffffffffffffffffffffffff1673ffffffffffffffffffffffffffffffffffffffff1681526020019081526020016000208281548110610afd57610afc6114b3565b5b90600052602060002090600302016000820181600001908054610b1f90611511565b610b2a929190610d4e565b506001820160009054906101000a900460ff168160010160006101000a81548160ff0219169083151502179055506002820181600201908054610b6c90611511565b610b77929190610d4e565b509050508080610b8690611572565b9150506109ee565b506000803373ffffffffffffffffffffffffffffffffffffffff1673ffffffffffffffffffffffffffffffffffffffff168152602001908152602001600020805480610bdd57610bdc61191a565b5b600190038181906000526020600020906003020160008082016000610c029190610ea0565b6001820160006101000a81549060ff0219169055600282016000610c269190610ea0565b505090557f655d76f017524a8cd0e3013b9b5c0e5dee7b121b813207ef73932dea8b6536f56000803373ffffffffffffffffffffffffffffffffffffffff1673ffffffffffffffffffffffffffffffffffffffff16815260200190815260200160002033604051610c989291906117aa565b60405180910390a15050565b5080546000825560030290600052602060002090810190610cc59190610ee0565b50565b828054610cd490611511565b90600052602060002090601f016020900481019282610cf65760008555610d3d565b82601f10610d0f57805160ff1916838001178555610d3d565b82800160010185558215610d3d579182015b82811115610d3c578251825591602001919060010190610d21565b5b509050610d4a9190610f2b565b5090565b828054610d5a90611511565b90600052602060002090601f016020900481019282610d7c5760008555610dca565b82601f10610d8d5780548555610dca565b82800160010185558215610dca57600052602060002091601f016020900482015b82811115610dc9578254825591600101919060010190610dae565b5b509050610dd79190610f2b565b5090565b828054828255906000526020600020906003028101928215610e8f5760005260206000209160030282015b82811115610e8e5782826000820181600001908054610e2490611511565b610e2f929190610d4e565b506001820160009054906101000a900460ff168160010160006101000a81548160ff0219169083151502179055506002820181600201908054610e7190611511565b610e7c929190610d4e565b50505091600301919060030190610e06565b5b509050610e9c9190610ee0565b5090565b508054610eac90611511565b6000825580601f10610ebe5750610edd565b601f016020900490600052602060002090810190610edc9190610f2b565b5b50565b5b80821115610f275760008082016000610efa9190610ea0565b6001820160006101000a81549060ff0219169055600282016000610f1e9190610ea0565b50600301610ee1565b5090565b5b80821115610f44576000816000905550600101610f2c565b5090565b6000604051905090565b600080fd5b600080fd5b600080fd5b600080fd5b6000601f19601f8301169050919050565b7f4e487b7100000000000000000000000000000000000000000000000000000000600052604160045260246000fd5b610faf82610f66565b810181811067ffffffffffffffff82111715610fce57610fcd610f77565b5b80604052505050565b6000610fe1610f48565b9050610fed8282610fa6565b919050565b600067ffffffffffffffff82111561100d5761100c610f77565b5b61101682610f66565b9050602081019050919050565b82818337600083830152505050565b600061104561104084610ff2565b610fd7565b90508281526020810184848401111561106157611060610f61565b5b61106c848285611023565b509392505050565b600082601f83011261108957611088610f5c565b5b8135611099848260208601611032565b91505092915050565b600080604083850312156110b9576110b8610f52565b5b600083013567ffffffffffffffff8111156110d7576110d6610f57565b5b6110e385828601611074565b925050602083013567ffffffffffffffff81111561110457611103610f57565b5b61111085828601611074565b9150509250929050565b600073ffffffffffffffffffffffffffffffffffffffff82169050919050565b60006111458261111a565b9050919050565b6111558161113a565b811461116057600080fd5b50565b6000813590506111728161114c565b92915050565b6000819050919050565b61118b81611178565b811461119657600080fd5b50565b6000813590506111a881611182565b92915050565b600080604083850312156111c5576111c4610f52565b5b60006111d385828601611163565b92505060206111e485828601611199565b9150509250929050565b600081519050919050565b600082825260208201905092915050565b60005b8381101561122857808201518184015260208101905061120d565b83811115611237576000848401525b50505050565b6000611248826111ee565b61125281856111f9565b935061126281856020860161120a565b61126b81610f66565b840191505092915050565b60008115159050919050565b61128b81611276565b82525050565b600060608201905081810360008301526112ab818661123d565b90506112ba6020830185611282565b81810360408301526112cc818461123d565b9050949350505050565b6000602082840312156112ec576112eb610f52565b5b600082013567ffffffffffffffff81111561130a57611309610f57565b5b61131684828501611074565b91505092915050565b600081519050919050565b600082825260208201905092915050565b6000819050602082019050919050565b600082825260208201905092915050565b6000611367826111ee565b611371818561134b565b935061138181856020860161120a565b61138a81610f66565b840191505092915050565b61139e81611276565b82525050565b600060608301600083015184820360008601526113c1828261135c565b91505060208301516113d66020860182611395565b50604083015184820360408601526113ee828261135c565b9150508091505092915050565b600061140783836113a4565b905092915050565b6000602082019050919050565b60006114278261131f565b611431818561132a565b9350836020820285016114438561133b565b8060005b8581101561147f578484038952815161146085826113fb565b945061146b8361140f565b925060208a01995050600181019050611447565b50829750879550505050505092915050565b600060208201905081810360008301526114ab818461141c565b905092915050565b7f4e487b7100000000000000000000000000000000000000000000000000000000600052603260045260246000fd5b7f4e487b7100000000000000000000000000000000000000000000000000000000600052602260045260246000fd5b6000600282049050600182168061152957607f821691505b6020821081141561153d5761153c6114e2565b5b50919050565b7f4e487b7100000000000000000000000000000000000000000000000000000000600052601160045260246000fd5b600061157d82611178565b91507fffffffffffffffffffffffffffffffffffffffffffffffffffffffffffffffff8214156115b0576115af611543565b5b600182019050919050565b600081549050919050565b60008190508160005260206000209050919050565b60008190508160005260206000209050919050565b600081546115fd81611511565b611607818661134b565b94506001821660008114611622576001811461163457611667565b60ff1983168652602086019350611667565b61163d856115db565b60005b8381101561165f57815481890152600182019150602081019050611640565b808801955050505b50505092915050565b60008160001c9050919050565b600060ff82169050919050565b600061169d61169883611670565b61167d565b9050919050565b600060608301600080840185830360008701526116c183826115f0565b925050600184015490506116d48161168a565b6116e16020870182611395565b506002840185830360408701526116f883826115f0565b925050819250505092915050565b600061171283836116a4565b905092915050565b6000600382019050919050565b6000611732826115bb565b61173c818561132a565b93508360208202850161174e856115c6565b8060005b858110156117895784840389528161176a8582611706565b94506117758361171a565b925060208a01995050600181019050611752565b50829750879550505050505092915050565b6117a48161113a565b82525050565b600060408201905081810360008301526117c48185611727565b90506117d3602083018461179b565b9392505050565b600081905092915050565b60008190508160005260206000209050919050565b6000815461180781611511565b61181181866117da565b9450600182166000811461182c576001811461183d57611870565b60ff19831686528186019350611870565b611846856117e5565b60005b8381101561186857815481890152600182019150602081019050611849565b838801955050505b50505092915050565b600061188582846117fa565b915081905092915050565b600061189b82611178565b91506118a683611178565b9250828210156118b9576118b8611543565b5b828203905092915050565b60006118cf82611178565b91506118da83611178565b9250827fffffffffffffffffffffffffffffffffffffffffffffffffffffffffffffffff0382111561190f5761190e611543565b5b828201905092915050565b7f4e487b7100000000000000000000000000000000000000000000000000000000600052603160045260246000fdfea264697066735822122016575c2895384aeec055b6ebe3dd7567464562940b445695cdfcf70809021ad664736f6c63430008090033",
  "linkReferences": {},
  "deployedLinkReferences": {}
}