{
  "_format": "hh-sol-artifact-1",
  "contractName": "Todo",
  "sourceName": "contracts/Todo.sol",
  "abi": [
    {
      "inputs": [
        {
          "internalType": "uint256",
          "name": "_id",
          "type": "uint256"
        },
        {
          "internalType": "string",
          "name": "_title",
          "type": "string"
        }
      ],
      "name": "addTodo",
      "outputs": [],
      "stateMutability": "nonpayable",
      "type": "function"
    },
    {
      "inputs": [
        {
          "internalType": "uint256",
          "name": "_id",
          "type": "uint256"
        }
      ],
      "name": "deleteTodo",
      "outputs": [],
      "stateMutability": "nonpayable",
      "type": "function"
    },
    {
      "inputs": [
        {
          "internalType": "uint256",
          "name": "_idx",
          "type": "uint256"
        }
      ],
      "name": "getArrayElem",
      "outputs": [
        {
          "components": [
            {
              "internalType": "uint256",
              "name": "id",
              "type": "uint256"
            },
            {
              "internalType": "bool",
              "name": "isDone",
              "type": "bool"
            },
            {
              "internalType": "string",
              "name": "title",
              "type": "string"
            }
          ],
          "internalType": "struct Todo.todoStruct",
          "name": "",
          "type": "tuple"
        }
      ],
      "stateMutability": "view",
      "type": "function"
    },
    {
      "inputs": [],
      "name": "getTodos",
      "outputs": [
        {
          "components": [
            {
              "internalType": "uint256",
              "name": "id",
              "type": "uint256"
            },
            {
              "internalType": "bool",
              "name": "isDone",
              "type": "bool"
            },
            {
              "internalType": "string",
              "name": "title",
              "type": "string"
            }
          ],
          "internalType": "struct Todo.todoStruct[]",
          "name": "",
          "type": "tuple[]"
        }
      ],
      "stateMutability": "view",
      "type": "function"
    },
    {
      "inputs": [
        {
          "internalType": "address",
          "name": "",
          "type": "address"
        },
        {
          "internalType": "uint256",
          "name": "",
          "type": "uint256"
        }
      ],
      "name": "todos",
      "outputs": [
        {
          "internalType": "uint256",
          "name": "id",
          "type": "uint256"
        },
        {
          "internalType": "bool",
          "name": "isDone",
          "type": "bool"
        },
        {
          "internalType": "string",
          "name": "title",
          "type": "string"
        }
      ],
      "stateMutability": "view",
      "type": "function"
    }
  ],
  "bytecode": "0x608060405234801561001057600080fd5b50611180806100206000396000f3fe608060405234801561001057600080fd5b50600436106100575760003560e01c8063428c18891461005c5780636e3c67381461008e578063c1da2020146100aa578063c33926cb146100c6578063dcd9b012146100e4575b600080fd5b61007660048036038101906100719190610a7c565b610114565b60405161008593929190610b7f565b60405180910390f35b6100a860048036038101906100a39190610bbd565b6101f0565b005b6100c460048036038101906100bf9190610d1f565b6104ee565b005b6100ce6105c0565b6040516100db9190610ef5565b60405180910390f35b6100fe60048036038101906100f99190610bbd565b610712565b60405161010b9190610f67565b60405180910390f35b6000602052816000526040600020818154811061013057600080fd5b9060005260206000209060030201600091509150508060000154908060010160009054906101000a900460ff169080600201805461016d90610fb8565b80601f016020809104026020016040519081016040528092919081815260200182805461019990610fb8565b80156101e65780601f106101bb576101008083540402835291602001916101e6565b820191906000526020600020905b8154815290600101906020018083116101c957829003601f168201915b5050505050905083565b600080600090505b6000803373ffffffffffffffffffffffffffffffffffffffff1673ffffffffffffffffffffffffffffffffffffffff168152602001908152602001600020805490508110156102c557826000803373ffffffffffffffffffffffffffffffffffffffff1673ffffffffffffffffffffffffffffffffffffffff168152602001908152602001600020828154811061029257610291610fea565b5b90600052602060002090600302016000015414156102b2578091506102c5565b80806102bd90611048565b9150506101f8565b5060008190505b60016000803373ffffffffffffffffffffffffffffffffffffffff1673ffffffffffffffffffffffffffffffffffffffff1681526020019081526020016000208054905061031a9190611091565b811015610456576000803373ffffffffffffffffffffffffffffffffffffffff1673ffffffffffffffffffffffffffffffffffffffff16815260200190815260200160002060018261036c91906110c5565b8154811061037d5761037c610fea565b5b90600052602060002090600302016000803373ffffffffffffffffffffffffffffffffffffffff1673ffffffffffffffffffffffffffffffffffffffff16815260200190815260200160002082815481106103db576103da610fea565b5b9060005260206000209060030201600082015481600001556001820160009054906101000a900460ff168160010160006101000a81548160ff021916908315150217905550600282018160020190805461043490610fb8565b61043f929190610841565b50905050808061044e90611048565b9150506102cc565b506000803373ffffffffffffffffffffffffffffffffffffffff1673ffffffffffffffffffffffffffffffffffffffff1681526020019081526020016000208054806104a5576104a461111b565b5b60019003818190600052602060002090600302016000808201600090556001820160006101000a81549060ff02191690556002820160006104e691906108ce565b505090555050565b6000803373ffffffffffffffffffffffffffffffffffffffff1673ffffffffffffffffffffffffffffffffffffffff16815260200190815260200160002060405180606001604052808481526020016000151581526020018381525090806001815401808255809150506001900390600052602060002090600302016000909190919091506000820151816000015560208201518160010160006101000a81548160ff02191690831515021790555060408201518160020190805190602001906105b992919061090e565b5050505050565b60606000803373ffffffffffffffffffffffffffffffffffffffff1673ffffffffffffffffffffffffffffffffffffffff168152602001908152602001600020805480602002602001604051908101604052809291908181526020016000905b828210156107095783829060005260206000209060030201604051806060016040529081600082015481526020016001820160009054906101000a900460ff1615151515815260200160028201805461067890610fb8565b80601f01602080910402602001604051908101604052809291908181526020018280546106a490610fb8565b80156106f15780601f106106c6576101008083540402835291602001916106f1565b820191906000526020600020905b8154815290600101906020018083116106d457829003601f168201915b50505050508152505081526020019060010190610620565b50505050905090565b61071a610994565b6000803373ffffffffffffffffffffffffffffffffffffffff1673ffffffffffffffffffffffffffffffffffffffff168152602001908152602001600020828154811061076a57610769610fea565b5b9060005260206000209060030201604051806060016040529081600082015481526020016001820160009054906101000a900460ff161515151581526020016002820180546107b890610fb8565b80601f01602080910402602001604051908101604052809291908181526020018280546107e490610fb8565b80156108315780601f1061080657610100808354040283529160200191610831565b820191906000526020600020905b81548152906001019060200180831161081457829003601f168201915b5050505050815250509050919050565b82805461084d90610fb8565b90600052602060002090601f01602090048101928261086f57600085556108bd565b82601f1061088057805485556108bd565b828001600101855582156108bd57600052602060002091601f016020900482015b828111156108bc5782548255916001019190600101906108a1565b5b5090506108ca91906109b7565b5090565b5080546108da90610fb8565b6000825580601f106108ec575061090b565b601f01602090049060005260206000209081019061090a91906109b7565b5b50565b82805461091a90610fb8565b90600052602060002090601f01602090048101928261093c5760008555610983565b82601f1061095557805160ff1916838001178555610983565b82800160010185558215610983579182015b82811115610982578251825591602001919060010190610967565b5b50905061099091906109b7565b5090565b604051806060016040528060008152602001600015158152602001606081525090565b5b808211156109d05760008160009055506001016109b8565b5090565b6000604051905090565b600080fd5b600080fd5b600073ffffffffffffffffffffffffffffffffffffffff82169050919050565b6000610a13826109e8565b9050919050565b610a2381610a08565b8114610a2e57600080fd5b50565b600081359050610a4081610a1a565b92915050565b6000819050919050565b610a5981610a46565b8114610a6457600080fd5b50565b600081359050610a7681610a50565b92915050565b60008060408385031215610a9357610a926109de565b5b6000610aa185828601610a31565b9250506020610ab285828601610a67565b9150509250929050565b610ac581610a46565b82525050565b60008115159050919050565b610ae081610acb565b82525050565b600081519050919050565b600082825260208201905092915050565b60005b83811015610b20578082015181840152602081019050610b05565b83811115610b2f576000848401525b50505050565b6000601f19601f8301169050919050565b6000610b5182610ae6565b610b5b8185610af1565b9350610b6b818560208601610b02565b610b7481610b35565b840191505092915050565b6000606082019050610b946000830186610abc565b610ba16020830185610ad7565b8181036040830152610bb38184610b46565b9050949350505050565b600060208284031215610bd357610bd26109de565b5b6000610be184828501610a67565b91505092915050565b600080fd5b600080fd5b7f4e487b7100000000000000000000000000000000000000000000000000000000600052604160045260246000fd5b610c2c82610b35565b810181811067ffffffffffffffff82111715610c4b57610c4a610bf4565b5b80604052505050565b6000610c5e6109d4565b9050610c6a8282610c23565b919050565b600067ffffffffffffffff821115610c8a57610c89610bf4565b5b610c9382610b35565b9050602081019050919050565b82818337600083830152505050565b6000610cc2610cbd84610c6f565b610c54565b905082815260208101848484011115610cde57610cdd610bef565b5b610ce9848285610ca0565b509392505050565b600082601f830112610d0657610d05610bea565b5b8135610d16848260208601610caf565b91505092915050565b60008060408385031215610d3657610d356109de565b5b6000610d4485828601610a67565b925050602083013567ffffffffffffffff811115610d6557610d646109e3565b5b610d7185828601610cf1565b9150509250929050565b600081519050919050565b600082825260208201905092915050565b6000819050602082019050919050565b610db081610a46565b82525050565b610dbf81610acb565b82525050565b600082825260208201905092915050565b6000610de182610ae6565b610deb8185610dc5565b9350610dfb818560208601610b02565b610e0481610b35565b840191505092915050565b6000606083016000830151610e276000860182610da7565b506020830151610e3a6020860182610db6565b5060408301518482036040860152610e528282610dd6565b9150508091505092915050565b6000610e6b8383610e0f565b905092915050565b6000602082019050919050565b6000610e8b82610d7b565b610e958185610d86565b935083602082028501610ea785610d97565b8060005b85811015610ee35784840389528151610ec48582610e5f565b9450610ecf83610e73565b925060208a01995050600181019050610eab565b50829750879550505050505092915050565b60006020820190508181036000830152610f0f8184610e80565b905092915050565b6000606083016000830151610f2f6000860182610da7565b506020830151610f426020860182610db6565b5060408301518482036040860152610f5a8282610dd6565b9150508091505092915050565b60006020820190508181036000830152610f818184610f17565b905092915050565b7f4e487b7100000000000000000000000000000000000000000000000000000000600052602260045260246000fd5b60006002820490506001821680610fd057607f821691505b60208210811415610fe457610fe3610f89565b5b50919050565b7f4e487b7100000000000000000000000000000000000000000000000000000000600052603260045260246000fd5b7f4e487b7100000000000000000000000000000000000000000000000000000000600052601160045260246000fd5b600061105382610a46565b91507fffffffffffffffffffffffffffffffffffffffffffffffffffffffffffffffff82141561108657611085611019565b5b600182019050919050565b600061109c82610a46565b91506110a783610a46565b9250828210156110ba576110b9611019565b5b828203905092915050565b60006110d082610a46565b91506110db83610a46565b9250827fffffffffffffffffffffffffffffffffffffffffffffffffffffffffffffffff038211156111105761110f611019565b5b828201905092915050565b7f4e487b7100000000000000000000000000000000000000000000000000000000600052603160045260246000fdfea2646970667358221220c1a83717571a5e877636871cfc38b4aa9d981058b8918e0333ba5534c9244b0864736f6c63430008090033",
  "linkReferences": {},
  "deployedLinkReferences": {}
}